:1004860050617373776F72643A005F5F5F5F00431A
:100496006F727265637420636F64652100457272C2
:1004A6006F7220636F64652100312E4368616E6749
:1004B60020436F646500322E47616D6520332E45FB
:1004C600786974004E65772050617373776F726434
:1004D600004974206973206368616E676564210052
:1004E60047616D65206973206C6F6164696E670092
:0F072400041D00000000042400000000011C0060
:100198001206ECE52370481207407BFF7A04798643
:1001A8007D017F011205DF7BFF7A0479907D017F55
:1001B800021205DF7B007A00792412041112060D61
:1001C8008F23120740E5237BFF60067A0479958028
:1001D800047A0479A37D017F011205DF120713E574
:1001E80023640170511207407BFF7A0479AF7D01C7
:1001F8007F011205DF7BFF7A0479BC7D017F021243
:1002080005DF752211E52264016013E522640260AE
:100218000DE5226403600712000E8F2280E7E522B5
:10022800B40103752302E522B40203752303E52212
:10023800B40303E4F523E5236402703C1207407B12
:10024800FF7A0479CA7D017F011205DF7BFF7A04FA
:1002580079907D017F021205DF7B007A00791D12FB
:1002680004111207407BFF7A0479D77D017F0112C0
:1002780005DF120713752301E523640360030201F8
:010288009BDA
:10028900F508750902750A011207407BFF7A04799E
:10029900E67D017F011205DF7528017BFFAD287F0F
:1002A90002120700C374119528FFE49400FE7C0034
:1002B9007D6412031E1206A60528E528D394104072
:0602C900DA12074080FE7E
:10071300752211E522640C600712000E8F2280F30C
:0107230022B3
:060411008B0F8A10891117
:10041700751201E4F521752211E521706112000EB4
:100427008F22E522C3940A502FE512940450297EA7
:100437000074FF2512F582EE34FFF583AB0FAA1087
:10044700A911E5221202FCAD120512E522FB7A0082
:100457007517017F02120670E522B40B12E512C36D
:100467009402400B1512AD127B5F7F02120700E565
:0E04770022B40CA5E512B405A0752101809BEE
:010485002254
:10060D007F01752211E4F52874242528F8E6FE747F
:10061D001D2528F8E66E6002E4FF0528E528B404E0
:01062D00E7E5
:01062E0022A9
:03000B0002068D5D
:04068D00C0E0C0D039
:10069100758A66758CFC051CE51CB46403751C0029
:0506A100D0D0D0E032D2
:0F06BF001206CEC2861206CE8DA01206CED287AC
:0806CE007F027EEFDEFEDFFC7F
:0106D6002201
:0C073400AD07C2851206BFC2870206CEC8
:10065000CFCDCFCECCCE1203307C007D0A1203303A
:04066000ED2430FF56
:0C066400AD07D2851206BFC2870206CE89
:0B062F00AC05A90712063AAF01AD04AC
:10063A00AE07BE0104ED148006BE0209ED243F4454
:06064A0080FF12073422BC
:1006EC007F381207347F0C1207347F061207347FD1
:0406FC0001020734BC
:10070000AC05AA0712063AAF02AD0412063AAF03CF
:030710000206647A
:0A05DF008F0F8B108A118912AC05F2
:1005E90012063AAD04AF0F12063AE4FCAB10AA1199
:1005F900A9128C827583001202CFFF60061206646D
:030609000C80E979
:01060C0022CB
:0C05AC007F0AEA24FFFDE434FFFC7E001F
:0805B8008E188F198C1A8D1B9F
:1005C0007F017E00E4FBEBC3951BE51A6480F874A1
:0E05D0008098500AAC18AD1912031E0B80E87B
:0105DE0022FA
:040670008A158B1646
:1006740012062FAA17EAD39400400D1205ACAC154C
:08068400AD161206501A80EDBC
:01068C00224B
:0404F600AC07A905A1
:1004FA0012063AAF04AD0112063AC3EA6480948048
:10050A00400B7F2B1206648A2E8B2F800E7F2D12B2
:10051A000664C3E49BF52FE49AF52EAA2DEAD39438
:10052A0000400D1205ACAC2EAD2F1206501A80ED0C
:01053A00229E
:04053B008A328B3342
:10053F0012062FAA34EAD3940040297F101205AE79
:10054F00AC32AD33CFCDCFCECCCE120330EF540F74
:10055F00FEC3940AEE5004243080022437FF1206A3
:04056F00641A80D1B9
:010573002265
:040574008A378B38FF
:1005780012062FAA39EAD394004028EA24FFFDE4A2
:1005880034FFFC7F027E001205B8AC37AD38CFCD02
:10059800CFCECCCE120330EF54012430FF120664C4
:0305A8001A80D2E4
:0105AB00222D
:050740007F01020734F7
:10000E0075131175B0FFC2B420B3147F147E0012A5
:10001E0006A630B3FD7F147E001206A675130D20C2
:10002E00B2147F147E001206A630B2FD7F147E003D
:10003E001206A675130E20B1147F147E001206A6AA
:10004E0030B1FD7F147E001206A675130F20B0147A
:10005E007F147E001206A630B0FD7F147E001206BD
:10006E00A675131075B0FFC2B520B3147F147E00B1
:10007E001206A630B3FD7F147E001206A675130C71
:10008E0020B2147F147E001206A630B2FD7F147EBD
:10009E00001206A675130920B1147F147E001206F5
:1000AE00A630B1FD7F147E001206A675130620B091
:1000BE00147F147E001206A630B0FD7F147E00124F
:1000CE0006A675130375B0FFC2B620B3147F147E57
:1000DE00001206A630B3FD7F147E001206A675131D
:1000EE000B20B2147F147E001206A630B2FD7F14D0
:1000FE007E001206A675130820B1147F147E00121E
:10010E0006A630B1FD7F147E001206A675130520DB
:10011E00B0147F147E001206A630B0FD7F147E0050
:10012E001206A675130275B0FFC2B720B3147F1462
:10013E007E001206A630B3FD7F147E001206A6E4E2
:10014E00F51320B2147F147E001206A630B2FD7F86
:10015E00147E001206A675130720B1147F147E00BC
:10016E001206A630B1FD7F147E001206A67513048A
:10017E0020B0147F147E001206A630B0FD7F147ED0
:09018E00001206A6751301AF135F
:010197002245
:0A06A600EF1FAC0670011E4C600E41
:0C06B0007514027515C7D515FDD514FA98
:0306BC0080E822B1
:1006D7005389F0438901758A66758CFCC28DD28C6B
:0506E700D2A9D2AF22F0
:07000300C28CC2A9C2AF22AA
:0300000002038573
:0C038500787FE4F6D8FD7581390203CCC6
:1002CF00BB010CE58229F582E5833AF583E02250E4
:1002DF0006E92582F8E622BBFE06E92582F8E2222E
:0D02EF00E58229F582E5833AF583E4932248
:1002FC00F8BB010DE58229F582E5833AF583E8F038
:10030C00225006E92582C8F622BBFE05E92582C8E3
:02031C00F222CB
:10031E00EF8DF0A4A8F0CF8CF0A428CE8DF0A42EF3
:02032E00FE22AD
:10033000BC000BBE0029EF8DF084FFADF022E4CCB1
:10034000F875F008EF2FFFEE33FEEC33FCEE9DEC7A
:10035000984005FCEE9DFE0FD5F0E9E4CEFD22EDC0
:10036000F8F5F0EE8420D21CFEADF075F008EF2F0A
:10037000FFED33FD4007985006D5F0F222C398FDFB
:050380000FD5F0EA2298
:10039100020198E493A3F8E493A34003F68001F2E9
:1003A10008DFF48029E493A3F85407240CC8C3336D
:1003B100C4540F4420C8834004F456800146F6DF3C
:1003C100E4800B0102040810204080900724E47EA1
:1003D100019360BCA3FF543F30E509541FFEE49331
:1003E100A360010ECF54C025E060A840B8E493A3F8
:1003F100FAE493A3F8E493A3C8C582C8CAC583CA23
:10040100F0A3C8C582C8CAC583CADFE9DEE780BEDA
:0107330000C5
:00000001FF
